{
  "contractName": "CrowdFunding",
  "abi": [
    {
      "constant": true,
      "inputs": [
        {
          "internalType": "uint256",
          "name": "",
          "type": "uint256"
        }
      ],
      "name": "fundings",
      "outputs": [
        {
          "internalType": "address payable",
          "name": "initiator",
          "type": "address"
        },
        {
          "internalType": "string",
          "name": "title",
          "type": "string"
        },
        {
          "internalType": "string",
          "name": "info",
          "type": "string"
        },
        {
          "internalType": "string",
          "name": "hash",
          "type": "string"
        },
        {
          "internalType": "uint256",
          "name": "goal",
          "type": "uint256"
        },
        {
          "internalType": "uint256",
          "name": "endTime",
          "type": "uint256"
        },
        {
          "internalType": "bool",
          "name": "success",
          "type": "bool"
        },
        {
          "internalType": "uint256",
          "name": "amount",
          "type": "uint256"
        },
        {
          "internalType": "uint256",
          "name": "numFunders",
          "type": "uint256"
        },
        {
          "internalType": "uint256",
          "name": "numUses",
          "type": "uint256"
        }
      ],
      "payable": false,
      "stateMutability": "view",
      "type": "function"
    },
    {
      "constant": true,
      "inputs": [],
      "name": "numFundings",
      "outputs": [
        {
          "internalType": "uint256",
          "name": "",
          "type": "uint256"
        }
      ],
      "payable": false,
      "stateMutability": "view",
      "type": "function"
    },
    {
      "constant": false,
      "inputs": [
        {
          "internalType": "address payable",
          "name": "initiator",
          "type": "address"
        },
        {
          "internalType": "string",
          "name": "title",
          "type": "string"
        },
        {
          "internalType": "string",
          "name": "info",
          "type": "string"
        },
        {
          "internalType": "string",
          "name": "hash",
          "type": "string"
        },
        {
          "internalType": "uint256",
          "name": "goal",
          "type": "uint256"
        },
        {
          "internalType": "uint256",
          "name": "endTime",
          "type": "uint256"
        }
      ],
      "name": "newFunding",
      "outputs": [
        {
          "internalType": "uint256",
          "name": "",
          "type": "uint256"
        }
      ],
      "payable": false,
      "stateMutability": "nonpayable",
      "type": "function"
    },
    {
      "constant": false,
      "inputs": [
        {
          "internalType": "uint256",
          "name": "ID",
          "type": "uint256"
        }
      ],
      "name": "contribute",
      "outputs": [],
      "payable": true,
      "stateMutability": "payable",
      "type": "function"
    },
    {
      "constant": false,
      "inputs": [
        {
          "internalType": "uint256",
          "name": "ID",
          "type": "uint256"
        }
      ],
      "name": "returnMoney",
      "outputs": [],
      "payable": false,
      "stateMutability": "nonpayable",
      "type": "function"
    },
    {
      "constant": false,
      "inputs": [
        {
          "internalType": "uint256",
          "name": "ID",
          "type": "uint256"
        },
        {
          "internalType": "uint256",
          "name": "goal",
          "type": "uint256"
        },
        {
          "internalType": "string",
          "name": "info",
          "type": "string"
        }
      ],
      "name": "newUse",
      "outputs": [],
      "payable": false,
      "stateMutability": "nonpayable",
      "type": "function"
    },
    {
      "constant": false,
      "inputs": [
        {
          "internalType": "uint256",
          "name": "ID",
          "type": "uint256"
        },
        {
          "internalType": "uint256",
          "name": "useID",
          "type": "uint256"
        },
        {
          "internalType": "bool",
          "name": "agree",
          "type": "bool"
        }
      ],
      "name": "agreeUse",
      "outputs": [],
      "payable": false,
      "stateMutability": "nonpayable",
      "type": "function"
    },
    {
      "constant": false,
      "inputs": [
        {
          "internalType": "uint256",
          "name": "ID",
          "type": "uint256"
        },
        {
          "internalType": "uint256",
          "name": "useID",
          "type": "uint256"
        }
      ],
      "name": "checkUse",
      "outputs": [],
      "payable": false,
      "stateMutability": "nonpayable",
      "type": "function"
    },
    {
      "constant": true,
      "inputs": [
        {
          "internalType": "uint256",
          "name": "ID",
          "type": "uint256"
        }
      ],
      "name": "getUseLength",
      "outputs": [
        {
          "internalType": "uint256",
          "name": "",
          "type": "uint256"
        }
      ],
      "payable": false,
      "stateMutability": "view",
      "type": "function"
    },
    {
      "constant": true,
      "inputs": [
        {
          "internalType": "uint256",
          "name": "ID",
          "type": "uint256"
        },
        {
          "internalType": "uint256",
          "name": "useID",
          "type": "uint256"
        },
        {
          "internalType": "address",
          "name": "addr",
          "type": "address"
        }
      ],
      "name": "getUse",
      "outputs": [
        {
          "internalType": "string",
          "name": "",
          "type": "string"
        },
        {
          "internalType": "uint256",
          "name": "",
          "type": "uint256"
        },
        {
          "internalType": "uint256",
          "name": "",
          "type": "uint256"
        },
        {
          "internalType": "uint256",
          "name": "",
          "type": "uint256"
        },
        {
          "internalType": "bool",
          "name": "",
          "type": "bool"
        },
        {
          "internalType": "uint256",
          "name": "",
          "type": "uint256"
        }
      ],
      "payable": false,
      "stateMutability": "view",
      "type": "function"
    },
    {
      "constant": true,
      "inputs": [],
      "name": "getBalance",
      "outputs": [
        {
          "internalType": "uint256",
          "name": "",
          "type": "uint256"
        }
      ],
      "payable": false,
      "stateMutability": "view",
      "type": "function"
    },
    {
      "constant": true,
      "inputs": [
        {
          "internalType": "address",
          "name": "addr",
          "type": "address"
        },
        {
          "internalType": "uint256",
          "name": "ID",
          "type": "uint256"
        }
      ],
      "name": "getMyFundings",
      "outputs": [
        {
          "internalType": "uint256",
          "name": "",
          "type": "uint256"
        }
      ],
      "payable": false,
      "stateMutability": "view",
      "type": "function"
    }
  ],
  "bytecode": "0x608060405234801561001057600080fd5b50611c61806100206000396000f3fe6080604052600436106100a75760003560e01c80637e4f057b116100645780637e4f057b146102fd5780638a23e0471461053b578063c1cbbca714610580578063c70a2d79146105ae578063d13cb1fb146105d9578063ee40f60d146107c6576100a7565b806312065fe0146100ac578063164b2fb3146100d75780633785fc1a146101b35780633c698349146101ee57806357531ea21461023d578063716f71471461028e575b600080fd5b3480156100b857600080fd5b506100c16108cb565b6040518082815260200191505060405180910390f35b3480156100e357600080fd5b506101b1600480360360608110156100fa57600080fd5b8101908080359060200190929190803590602001909291908035906020019064010000000081111561012b57600080fd5b82018360208201111561013d57600080fd5b8035906020019184600183028401116401000000008311171561015f57600080fd5b91908080601f016020809104026020016040519081016040528093929190818152602001838380828437600081840152601f19601f8201169050808301925050505050505091929192905050506108d3565b005b3480156101bf57600080fd5b506101ec600480360360208110156101d657600080fd5b8101908080359060200190929190505050610abb565b005b3480156101fa57600080fd5b506102276004803603602081101561021157600080fd5b8101908080359060200190929190505050610c92565b6040518082815260200191505060405180910390f35b34801561024957600080fd5b5061028c6004803603606081101561026057600080fd5b810190808035906020019092919080359060200190929190803515159060200190929190505050610ccd565b005b34801561029a57600080fd5b506102e7600480360360408110156102b157600080fd5b81019080803573ffffffffffffffffffffffffffffffffffffffff169060200190929190803590602001909291905050506110c4565b6040518082815260200191505060405180910390f35b34801561030957600080fd5b50610525600480360360c081101561032057600080fd5b81019080803573ffffffffffffffffffffffffffffffffffffffff1690602001909291908035906020019064010000000081111561035d57600080fd5b82018360208201111561036f57600080fd5b8035906020019184600183028401116401000000008311171561039157600080fd5b91908080601f016020809104026020016040519081016040528093929190818152602001838380828437600081840152601f19601f820116905080830192505050505050509192919290803590602001906401000000008111156103f457600080fd5b82018360208201111561040657600080fd5b8035906020019184600183028401116401000000008311171561042857600080fd5b91908080601f016020809104026020016040519081016040528093929190818152602001838380828437600081840152601f19601f8201169050808301925050505050505091929192908035906020019064010000000081111561048b57600080fd5b82018360208201111561049d57600080fd5b803590602001918460018302840111640100000000831117156104bf57600080fd5b91908080601f016020809104026020016040519081016040528093929190818152602001838380828437600081840152601f19601f82011690508083019250505050505050919291929080359060200190929190803590602001909291905050506111b5565b6040518082815260200191505060405180910390f35b34801561054757600080fd5b5061057e6004803603604081101561055e57600080fd5b8101908080359060200190929190803590602001909291905050506112d2565b005b6105ac6004803603602081101561059657600080fd5b8101908080359060200190929190505050611567565b005b3480156105ba57600080fd5b506105c36116e4565b6040518082815260200191505060405180910390f35b3480156105e557600080fd5b50610612600480360360208110156105fc57600080fd5b81019080803590602001909291905050506116ea565b604051808b73ffffffffffffffffffffffffffffffffffffffff1673ffffffffffffffffffffffffffffffffffffffff1681526020018060200180602001806020018a81526020018981526020018815151515815260200187815260200186815260200185815260200184810384528d818151815260200191508051906020019080838360005b838110156106b4578082015181840152602081019050610699565b50505050905090810190601f1680156106e15780820380516001836020036101000a031916815260200191505b5084810383528c818151815260200191508051906020019080838360005b8381101561071a5780820151818401526020810190506106ff565b50505050905090810190601f1680156107475780820380516001836020036101000a031916815260200191505b5084810382528b818151815260200191508051906020019080838360005b83811015610780578082015181840152602081019050610765565b50505050905090810190601f1680156107ad5780820380516001836020036101000a031916815260200191505b509d505050505050505050505050505060405180910390f35b3480156107d257600080fd5b50610829600480360360608110156107e957600080fd5b810190808035906020019092919080359060200190929190803573ffffffffffffffffffffffffffffffffffffffff169060200190929190505050611933565b604051808060200187815260200186815260200185815260200184151515158152602001838152602001828103825288818151815260200191508051906020019080838360005b8381101561088b578082015181840152602081019050610870565b50505050905090810190601f1680156108b85780820380516001836020036101000a031916815260200191505b5097505050505050505060405180910390f35b600047905090565b60005483111580156108e6575060018310155b6108ef57600080fd5b600115156001600085815260200190815260200160002060060160009054906101000a900460ff1615151461092357600080fd5b600160008481526020019081526020016000206007015482111561094657600080fd5b6001600084815260200190815260200160002060000160009054906101000a900473ffffffffffffffffffffffffffffffffffffffff1673ffffffffffffffffffffffffffffffffffffffff163373ffffffffffffffffffffffffffffffffffffffff16146109b457600080fd5b6000600160008581526020019081526020016000209050600181600901540181600901819055508181600b016000836009015481526020019081526020016000206000019080519060200190610a0b929190611b87565b508281600b0160008360090154815260200190815260200160002060010181905550600081600b0160008360090154815260200190815260200160002060020181905550600081600b0160008360090154815260200190815260200160002060030181905550600081600b0160008360090154815260200190815260200160002060040160006101000a81548160ff02191690831515021790555082816007015403816007018190555050505050565b6000548111158015610ace575060018110155b610ad757600080fd5b600015156001600083815260200190815260200160002060060160009054906101000a900460ff16151514610b0b57600080fd5b60006001600083815260200190815260200160002090506000600190505b81600801548111610c8d573373ffffffffffffffffffffffffffffffffffffffff1682600a01600083815260200190815260200160002060000160009054906101000a900473ffffffffffffffffffffffffffffffffffffffff1673ffffffffffffffffffffffffffffffffffffffff161415610c805781600a01600082815260200190815260200160002060000160009054906101000a900473ffffffffffffffffffffffffffffffffffffffff1673ffffffffffffffffffffffffffffffffffffffff166108fc83600a016000848152602001908152602001600020600101549081150290604051600060405180830381858888f19350505050158015610c36573d6000803e3d6000fd5b50600082600a0160008381526020019081526020016000206001018190555081600a0160008281526020019081526020016000206001015482600701600082825403925050819055505b8080600101915050610b29565b505050565b600080548211158015610ca6575060018210155b610caf57600080fd5b60016000838152602001908152602001600020600901549050919050565b6000548311158015610ce0575060018310155b610ce957600080fd5b60016000848152602001908152602001600020600901548211158015610d10575060018210155b610d1957600080fd5b6000151560016000858152602001908152602001600020600b01600084815260200190815260200160002060040160009054906101000a900460ff16151514610d6157600080fd5b6000600190505b600160008581526020019081526020016000206008015481116110b4573373ffffffffffffffffffffffffffffffffffffffff1660016000868152602001908152602001600020600a01600083815260200190815260200160002060000160009054906101000a900473ffffffffffffffffffffffffffffffffffffffff1673ffffffffffffffffffffffffffffffffffffffff1614156110a7576001806000868152602001908152602001600020600b0160008581526020019081526020016000206005016000838152602001908152602001600020541415610ead5760016000858152602001908152602001600020600a0160008281526020019081526020016000206001015460016000868152602001908152602001600020600b01600085815260200190815260200160002060020160008282540392505081905550610f55565b600260016000868152602001908152602001600020600b0160008581526020019081526020016000206005016000838152602001908152602001600020541415610f545760016000858152602001908152602001600020600a0160008281526020019081526020016000206001015460016000868152602001908152602001600020600b016000858152602001908152602001600020600301600082825403925050819055505b5b81156110025760016000858152602001908152602001600020600a0160008281526020019081526020016000206001015460016000868152602001908152602001600020600b016000858152602001908152602001600020600201600082825401925050819055506001806000868152602001908152602001600020600b0160008581526020019081526020016000206005016000838152602001908152602001600020819055506110a6565b60016000858152602001908152602001600020600a0160008281526020019081526020016000206001015460016000868152602001908152602001600020600b01600085815260200190815260200160002060030160008282540192505081905550600260016000868152602001908152602001600020600b0160008581526020019081526020016000206005016000838152602001908152602001600020819055505b5b8080600101915050610d68565b506110bf83836112d2565b505050565b600080600090506000600190505b600160008581526020019081526020016000206008015481116111aa578473ffffffffffffffffffffffffffffffffffffffff1660016000868152602001908152602001600020600a01600083815260200190815260200160002060000160009054906101000a900473ffffffffffffffffffffffffffffffffffffffff1673ffffffffffffffffffffffffffffffffffffffff16141561119d5760016000858152602001908152602001600020600a01600082815260200190815260200160002060010154820191505b80806001019150506110d2565b508091505092915050565b60004282116111c357600080fd5b600160005401600081905550600060016000805481526020019081526020016000209050878160000160006101000a81548173ffffffffffffffffffffffffffffffffffffffff021916908373ffffffffffffffffffffffffffffffffffffffff16021790555086816001019080519060200190611242929190611b87565b508581600201908051906020019061125b929190611b87565b5084816003019080519060200190611274929190611b87565b5083816004018190555082816005018190555060008160060160006101000a81548160ff0219169083151502179055506000816007018190555060008160080181905550600081600901819055506000549150509695505050505050565b60005482111580156112e5575060018210155b6112ee57600080fd5b6000151560016000848152602001908152602001600020600b01600083815260200190815260200160002060040160009054906101000a900460ff1615151461133657600080fd5b600260016000848152602001908152602001600020600401548161135657fe5b0460016000848152602001908152602001600020600b0160008381526020019081526020016000206002015410611471576001806000848152602001908152602001600020600b01600083815260200190815260200160002060040160006101000a81548160ff0219169083151502179055506001600083815260200190815260200160002060000160009054906101000a900473ffffffffffffffffffffffffffffffffffffffff1673ffffffffffffffffffffffffffffffffffffffff166108fc60016000858152602001908152602001600020600b016000848152602001908152602001600020600101549081150290604051600060405180830381858888f1935050505015801561146f573d6000803e3d6000fd5b505b600260016000848152602001908152602001600020600401548161149157fe5b0460016000848152602001908152602001600020600b0160008381526020019081526020016000206003015411156115635760016000838152602001908152602001600020600b0160008281526020019081526020016000206001015460016000848152602001908152602001600020600701540160016000848152602001908152602001600020600701819055506001806000848152602001908152602001600020600b01600083815260200190815260200160002060040160006101000a81548160ff0219169083151502179055505b5050565b6000341180156115a5575060016000828152602001908152602001600020600701546001600083815260200190815260200160002060040154033411155b6115ae57600080fd5b426001600083815260200190815260200160002060050154116115d057600080fd5b600015156001600083815260200190815260200160002060060160009054906101000a900460ff1615151461160457600080fd5b6000600160008381526020019081526020016000209050348160070160008282540192505081905550600181600801540181600801819055503381600a0160008360080154815260200190815260200160002060000160006101000a81548173ffffffffffffffffffffffffffffffffffffffff021916908373ffffffffffffffffffffffffffffffffffffffff1602179055503481600a01600083600801548152602001908152602001600020600101819055508060040154816007015410158160060160006101000a81548160ff0219169083151502179055505050565b60005481565b60016020528060005260406000206000915090508060000160009054906101000a900473ffffffffffffffffffffffffffffffffffffffff1690806001018054600181600116156101000203166002900480601f0160208091040260200160405190810160405280929190818152602001828054600181600116156101000203166002900480156117bc5780601f10611791576101008083540402835291602001916117bc565b820191906000526020600020905b81548152906001019060200180831161179f57829003601f168201915b505050505090806002018054600181600116156101000203166002900480601f01602080910402602001604051908101604052809291908181526020018280546001816001161561010002031660029004801561185a5780601f1061182f5761010080835404028352916020019161185a565b820191906000526020600020905b81548152906001019060200180831161183d57829003601f168201915b505050505090806003018054600181600116156101000203166002900480601f0160208091040260200160405190810160405280929190818152602001828054600181600116156101000203166002900480156118f85780601f106118cd576101008083540402835291602001916118f8565b820191906000526020600020905b8154815290600101906020018083116118db57829003601f168201915b5050505050908060040154908060050154908060060160009054906101000a900460ff1690806007015490806008015490806009015490508a565b606060008060008060008054891115801561194f575060018910155b61195857600080fd5b600160008a815260200190815260200160002060090154881115801561197f575060018810155b61198857600080fd5b6000600160008b8152602001908152602001600020600b0160008a8152602001908152602001600020905060008090506000600190505b600160008d8152602001908152602001600020600801548111611aaa578973ffffffffffffffffffffffffffffffffffffffff16600160008e8152602001908152602001600020600a01600083815260200190815260200160002060000160009054906101000a900473ffffffffffffffffffffffffffffffffffffffff1673ffffffffffffffffffffffffffffffffffffffff161415611a9d57600160008d8152602001908152602001600020600b0160008c81526020019081526020016000206005016000828152602001908152602001600020549150611aaa565b80806001019150506119bf565b50816000018260010154836002015484600301548560040160009054906101000a900460ff1685858054600181600116156101000203166002900480601f016020809104026020016040519081016040528092919081815260200182805460018160011615610100020316600290048015611b665780601f10611b3b57610100808354040283529160200191611b66565b820191906000526020600020905b815481529060010190602001808311611b4957829003601f168201915b50505050509550975097509750975097509750505093975093979195509350565b828054600181600116156101000203166002900490600052602060002090601f016020900481019282601f10611bc857805160ff1916838001178555611bf6565b82800160010185558215611bf6579182015b82811115611bf5578251825591602001919060010190611bda565b5b509050611c039190611c07565b5090565b611c2991905b80821115611c25576000816000905550600101611c0d565b5090565b9056fea265627a7a723158200ed3637e5f6c27998f1fb67f652c0d25f3692408f457552d92085e1a3ea1e43964736f6c63430005100032",
  "source": "// SPDX-License-Identifier: MIT\r\npragma solidity >=0.4.22 <0.9.0;\r\n\r\ncontract CrowdFunding {\r\n  \r\n  // \r\n  struct Funder {\r\n    address payable addr;   // \r\n    uint amount;            // \r\n  }\r\n\r\n  // \r\n  struct Use {\r\n    string info;                     // \r\n    uint goal;                       // \r\n    uint agreeAmount;                // \r\n    uint disagree;                   // \r\n    bool over;                       // \r\n    mapping(uint => uint) agree;     //  0: 12\r\n  }\r\n\r\n  // \r\n  struct Funding {\r\n    address payable initiator;       // \r\n    string title;                    // \r\n    string info;                     // \r\n    string hash;                    // IPFShash\r\n    uint goal;                       // \r\n    uint endTime;                    // \r\n\r\n    bool success;                    //  amount \r\n\r\n    uint amount;                     // \r\n    uint numFunders;                 // \r\n    uint numUses;                    // \r\n    mapping(uint => Funder) funders; // \r\n    mapping(uint => Use) uses;       // \r\n  }\r\n\r\n  uint public numFundings;                  // \r\n  mapping(uint => Funding) public fundings; // \r\n\r\n  /**\r\n   * \r\n   * @param initiator \r\n   * @param title \r\n   * @param info \r\n   * @param goal \r\n   * @param endTime \r\n   */\r\n  function newFunding(address payable initiator, string memory title, string memory info, string memory hash, uint goal, uint endTime) public returns(uint) {\r\n    require(endTime > block.timestamp);\r\n\r\n    numFundings = numFundings + 1;  // 1\r\n    Funding storage f = fundings[numFundings]; // \r\n    f.initiator = initiator;\r\n    f.title = title;\r\n    f.info = info;\r\n    f.hash = hash;\r\n    f.goal = goal;\r\n    f.endTime = endTime;\r\n    f.success = false;\r\n    f.amount = 0;\r\n    f.numFunders = 0;\r\n    f.numUses = 0;\r\n    \r\n    return numFundings;\r\n  }\r\n  \r\n  /**\r\n   * \r\n   * @param ID id\r\n   */\r\n  function contribute(uint ID) public payable {\r\n    // 0\r\n    // msg.data  calldata\r\n    // msg.value wei\r\n    // msg.sender \r\n    require(msg.value > 0 && msg.value <= fundings[ID].goal - fundings[ID].amount);\r\n    // \r\n    require(fundings[ID].endTime > block.timestamp);\r\n    // \r\n    require(fundings[ID].success == false);\r\n\r\n    Funding storage f = fundings[ID];\r\n    f.amount += msg.value;\r\n    f.numFunders = f.numFunders + 1;\r\n    f.funders[f.numFunders].addr = msg.sender;\r\n    f.funders[f.numFunders].amount = msg.value;\r\n    // \r\n    f.success = f.amount >= f.goal;\r\n  }\r\n\r\n  /**\r\n   * \r\n   * @param ID id\r\n   */\r\n  function returnMoney(uint ID) public {\r\n    // \r\n    require(ID <= numFundings && ID >= 1); \r\n    require(fundings[ID].success == false);\r\n\r\n    // \r\n    Funding storage f = fundings[ID];\r\n    for(uint i=1; i<=f.numFunders; i++)\r\n      if(f.funders[i].addr == msg.sender) { // \r\n        f.funders[i].addr.transfer(f.funders[i].amount);  // \r\n        f.funders[i].amount = 0;\r\n        f.amount -= f.funders[i].amount;\r\n      }\r\n  }\r\n  /**\r\n   * \r\n   * @param ID id\r\n   * @param goal \r\n   * @param info \r\n   */\r\n  function newUse(uint ID, uint goal, string memory info) public {\r\n    //  &&  &&  && \r\n    require(ID <= numFundings && ID >= 1);\r\n    require(fundings[ID].success == true);\r\n    require(goal <= fundings[ID].amount);\r\n    require(msg.sender == fundings[ID].initiator);\r\n\r\n    Funding storage f = fundings[ID];\r\n    f.numUses = f.numUses + 1; // 1\r\n    f.uses[f.numUses].info = info;\r\n    f.uses[f.numUses].goal = goal;\r\n    f.uses[f.numUses].agreeAmount = 0;\r\n    f.uses[f.numUses].disagree = 0;\r\n    f.uses[f.numUses].over = false;\r\n    f.amount = f.amount - goal;\r\n  }\r\n\r\n  /**\r\n   * \r\n   * @param ID id\r\n   * @param useID id\r\n   * @param agree \r\n   */\r\n  function agreeUse(uint ID, uint useID, bool agree) public {\r\n    //  &&  && \r\n    require(ID <= numFundings && ID >= 1);\r\n    require(useID <= fundings[ID].numUses && useID >= 1);\r\n    require(fundings[ID].uses[useID].over == false);\r\n\r\n    for(uint i=1; i<=fundings[ID].numFunders; i++)\r\n      if(fundings[ID].funders[i].addr == msg.sender) {  // \r\n        if(fundings[ID].uses[useID].agree[i] == 1) { // \r\n          fundings[ID].uses[useID].agreeAmount -= fundings[ID].funders[i].amount;\r\n        } else if(fundings[ID].uses[useID].agree[i] == 2) { // \r\n          fundings[ID].uses[useID].disagree -= fundings[ID].funders[i].amount;\r\n        }\r\n        if(agree) { // \r\n          fundings[ID].uses[useID].agreeAmount += fundings[ID].funders[i].amount;\r\n          fundings[ID].uses[useID].agree[i] = 1;\r\n        }\r\n        else { // \r\n          fundings[ID].uses[useID].disagree += fundings[ID].funders[i].amount;\r\n          fundings[ID].uses[useID].agree[i] = 2;\r\n        }\r\n      }\r\n    checkUse(ID, useID); // \r\n  }\r\n\r\n  /**\r\n   * \r\n   * @param ID id\r\n   * @param useID id\r\n   */\r\n  function checkUse(uint ID, uint useID) public {\r\n    require(ID <= numFundings && ID >= 1);\r\n    require(fundings[ID].uses[useID].over == false);\r\n\r\n    if(fundings[ID].uses[useID].agreeAmount >= fundings[ID].goal / 2) { // \r\n      fundings[ID].uses[useID].over = true;\r\n      fundings[ID].initiator.transfer(fundings[ID].uses[useID].goal);\r\n    }\r\n    if(fundings[ID].uses[useID].disagree > fundings[ID].goal / 2) {\r\n      fundings[ID].amount = fundings[ID].amount + fundings[ID].uses[useID].goal;\r\n      fundings[ID].uses[useID].over = true;\r\n    }\r\n  }\r\n\r\n  /**\r\n   * \r\n   * @param ID ID\r\n   */\r\n  function getUseLength(uint ID) public view returns (uint) {\r\n    require(ID <= numFundings && ID >= 1);\r\n\r\n    return fundings[ID].numUses;\r\n  }\r\n\r\n  /**\r\n   * IDID\r\n   * ID id\r\n   * useID id\r\n   * addr \r\n   */\r\n  function getUse(uint ID, uint useID, address addr) public view returns (string memory, uint, uint, uint, bool, uint) {\r\n    require(ID <= numFundings && ID >= 1);\r\n    require(useID <= fundings[ID].numUses && useID >= 1);\r\n\r\n    Use storage u = fundings[ID].uses[useID];\r\n    uint agree = 0;\r\n    for(uint i=1; i<=fundings[ID].numFunders; i++)\r\n      if(fundings[ID].funders[i].addr == addr) {\r\n        agree = fundings[ID].uses[useID].agree[i];\r\n        break;\r\n      }\r\n    \r\n    // \r\n    return (u.info, u.goal, u.agreeAmount, u.disagree, u.over, agree);  \r\n  }\r\n\r\n  /**\r\n   * \r\n   */\r\n  function getBalance() public view returns (uint) {\r\n    return address(this).balance;\r\n  }\r\n  \r\n  /**\r\n   * \r\n   * addr \r\n   * ID id\r\n   */\r\n  function getMyFundings(address addr, uint ID) public view returns (uint) {\r\n      uint res = 0;\r\n      for(uint i=1; i<=fundings[ID].numFunders; i++) {\r\n          if(fundings[ID].funders[i].addr == addr)\r\n            res += fundings[ID].funders[i].amount;\r\n      }\r\n      return res;\r\n  } \r\n}",
  "sourcePath": "E:/GraduationProject/Project/Crowdfunding/contracts/CrowdFunding.sol",
  "compiler": {
    "name": "solc",
    "version": "0.5.16+commit.9c3226ce.Emscripten.clang"
  },
  "schemaVersion": "3.3.4",
  "updatedAt": "2021-04-12T07:05:56.478Z",
  "networkType": "ethereum",
  "devdoc": {
    "methods": {
      "agreeUse(uint256,uint256,bool)": {
        "params": {
          "ID": "id",
          "agree": "",
          "useID": "id"
        }
      },
      "checkUse(uint256,uint256)": {
        "params": {
          "ID": "id",
          "useID": "id"
        }
      },
      "contribute(uint256)": {
        "params": {
          "ID": "id"
        }
      },
      "getUseLength(uint256)": {
        "params": {
          "ID": "ID"
        }
      },
      "newFunding(address,string,string,string,uint256,uint256)": {
        "params": {
          "endTime": "",
          "goal": "",
          "info": "",
          "initiator": "",
          "title": ""
        }
      },
      "newUse(uint256,uint256,string)": {
        "params": {
          "ID": "id",
          "goal": "",
          "info": ""
        }
      },
      "returnMoney(uint256)": {
        "params": {
          "ID": "id"
        }
      }
    }
  },
  "userdoc": {
    "methods": {
      "agreeUse(uint256,uint256,bool)": {
        "notice": ""
      },
      "checkUse(uint256,uint256)": {
        "notice": ""
      },
      "contribute(uint256)": {
        "notice": ""
      },
      "getBalance()": {
        "notice": ""
      },
      "getMyFundings(address,uint256)": {
        "notice": " addr  ID id"
      },
      "getUse(uint256,uint256,address)": {
        "notice": "IDID ID id useID id addr "
      },
      "getUseLength(uint256)": {
        "notice": ""
      },
      "newFunding(address,string,string,string,uint256,uint256)": {
        "notice": ""
      },
      "newUse(uint256,uint256,string)": {
        "notice": ""
      },
      "returnMoney(uint256)": {
        "notice": ""
      }
    }
  }
}